{
  "_format": "hh-sol-artifact-1",
  "contractName": "FixedBond",
  "sourceName": "contracts/FixedBond.sol",
  "abi": [
    {
      "inputs": [
        {
          "internalType": "address",
          "name": "_token",
          "type": "address"
        }
      ],
      "stateMutability": "nonpayable",
      "type": "constructor"
    },
    {
      "anonymous": false,
      "inputs": [
        {
          "indexed": true,
          "internalType": "address",
          "name": "previousOwner",
          "type": "address"
        },
        {
          "indexed": true,
          "internalType": "address",
          "name": "newOwner",
          "type": "address"
        }
      ],
      "name": "OwnershipTransferred",
      "type": "event"
    },
    {
      "anonymous": false,
      "inputs": [
        {
          "indexed": false,
          "internalType": "uint256",
          "name": "_value",
          "type": "uint256"
        }
      ],
      "name": "RewardsAdded",
      "type": "event"
    },
    {
      "anonymous": false,
      "inputs": [
        {
          "indexed": true,
          "internalType": "address",
          "name": "_from",
          "type": "address"
        },
        {
          "indexed": false,
          "internalType": "uint256",
          "name": "_value",
          "type": "uint256"
        }
      ],
      "name": "TokensDeposited",
      "type": "event"
    },
    {
      "anonymous": false,
      "inputs": [
        {
          "indexed": true,
          "internalType": "address",
          "name": "_from",
          "type": "address"
        }
      ],
      "name": "TokensWithdrawn",
      "type": "event"
    },
    {
      "inputs": [],
      "name": "bondInfo",
      "outputs": [
        {
          "internalType": "bool",
          "name": "isActive",
          "type": "bool"
        },
        {
          "internalType": "uint256",
          "name": "interestOneMonth",
          "type": "uint256"
        },
        {
          "internalType": "uint256",
          "name": "interestThreeMonth",
          "type": "uint256"
        },
        {
          "internalType": "uint256",
          "name": "interestSixMonth",
          "type": "uint256"
        },
        {
          "internalType": "uint256",
          "name": "interestTwelveMonth",
          "type": "uint256"
        },
        {
          "internalType": "uint256",
          "name": "minimumDeposit",
          "type": "uint256"
        }
      ],
      "stateMutability": "view",
      "type": "function"
    },
    {
      "inputs": [
        {
          "internalType": "address",
          "name": "_address",
          "type": "address"
        }
      ],
      "name": "calculateRewards",
      "outputs": [
        {
          "internalType": "uint256",
          "name": "",
          "type": "uint256"
        }
      ],
      "stateMutability": "view",
      "type": "function"
    },
    {
      "inputs": [
        {
          "internalType": "uint256",
          "name": "_amount",
          "type": "uint256"
        },
        {
          "internalType": "uint256",
          "name": "_timeInMonths",
          "type": "uint256"
        }
      ],
      "name": "deposit",
      "outputs": [],
      "stateMutability": "nonpayable",
      "type": "function"
    },
    {
      "inputs": [
        {
          "internalType": "uint256",
          "name": "_amount",
          "type": "uint256"
        }
      ],
      "name": "depositRewards",
      "outputs": [],
      "stateMutability": "nonpayable",
      "type": "function"
    },
    {
      "inputs": [],
      "name": "emergencyWithdraw",
      "outputs": [],
      "stateMutability": "nonpayable",
      "type": "function"
    },
    {
      "inputs": [],
      "name": "owner",
      "outputs": [
        {
          "internalType": "address",
          "name": "",
          "type": "address"
        }
      ],
      "stateMutability": "view",
      "type": "function"
    },
    {
      "inputs": [],
      "name": "renounceOwnership",
      "outputs": [],
      "stateMutability": "nonpayable",
      "type": "function"
    },
    {
      "inputs": [],
      "name": "rewardsBalance",
      "outputs": [
        {
          "internalType": "uint256",
          "name": "",
          "type": "uint256"
        }
      ],
      "stateMutability": "view",
      "type": "function"
    },
    {
      "inputs": [
        {
          "internalType": "bool",
          "name": "_isActive",
          "type": "bool"
        },
        {
          "internalType": "uint256",
          "name": "_interestOneMonth",
          "type": "uint256"
        },
        {
          "internalType": "uint256",
          "name": "_interestThreeMonth",
          "type": "uint256"
        },
        {
          "internalType": "uint256",
          "name": "_interestSixMonth",
          "type": "uint256"
        },
        {
          "internalType": "uint256",
          "name": "_interestTwelveMonth",
          "type": "uint256"
        },
        {
          "internalType": "uint256",
          "name": "_minimumDeposit",
          "type": "uint256"
        }
      ],
      "name": "setupBond",
      "outputs": [],
      "stateMutability": "nonpayable",
      "type": "function"
    },
    {
      "inputs": [],
      "name": "token",
      "outputs": [
        {
          "internalType": "address",
          "name": "",
          "type": "address"
        }
      ],
      "stateMutability": "view",
      "type": "function"
    },
    {
      "inputs": [
        {
          "internalType": "address",
          "name": "newOwner",
          "type": "address"
        }
      ],
      "name": "transferOwnership",
      "outputs": [],
      "stateMutability": "nonpayable",
      "type": "function"
    },
    {
      "inputs": [
        {
          "internalType": "bool",
          "name": "_isActive",
          "type": "bool"
        },
        {
          "internalType": "uint256",
          "name": "_minimumDeposit",
          "type": "uint256"
        }
      ],
      "name": "updateBond",
      "outputs": [],
      "stateMutability": "nonpayable",
      "type": "function"
    },
    {
      "inputs": [
        {
          "internalType": "address",
          "name": "",
          "type": "address"
        }
      ],
      "name": "userInfo",
      "outputs": [
        {
          "internalType": "uint256",
          "name": "amountDeposited",
          "type": "uint256"
        },
        {
          "internalType": "uint256",
          "name": "depositedOn",
          "type": "uint256"
        },
        {
          "internalType": "uint256",
          "name": "lockPeriod",
          "type": "uint256"
        }
      ],
      "stateMutability": "view",
      "type": "function"
    },
    {
      "inputs": [],
      "name": "withdraw",
      "outputs": [],
      "stateMutability": "nonpayable",
      "type": "function"
    }
  ],
  "bytecode": "0x608060405260006003553480156200001657600080fd5b50604051620020923803806200209283398181016040528101906200003c91906200018e565b6200005c62000050620000ab60201b60201c565b620000b360201b60201c565b6001808190555080600260006101000a81548173ffffffffffffffffffffffffffffffffffffffff021916908373ffffffffffffffffffffffffffffffffffffffff1602179055505062000208565b600033905090565b60008060009054906101000a900473ffffffffffffffffffffffffffffffffffffffff169050816000806101000a81548173ffffffffffffffffffffffffffffffffffffffff021916908373ffffffffffffffffffffffffffffffffffffffff1602179055508173ffffffffffffffffffffffffffffffffffffffff168173ffffffffffffffffffffffffffffffffffffffff167f8be0079c531659141344cd1fd0a4f28419497f9722a3daafe3b4186f6b6457e060405160405180910390a35050565b6000815190506200018881620001ee565b92915050565b600060208284031215620001a157600080fd5b6000620001b18482850162000177565b91505092915050565b6000620001c782620001ce565b9050919050565b600073ffffffffffffffffffffffffffffffffffffffff82169050919050565b620001f981620001ba565b81146200020557600080fd5b50565b611e7a80620002186000396000f3fe608060405234801561001057600080fd5b50600436106100ea5760003560e01c80638da5cb5b1161008c578063e8383bbf11610066578063e8383bbf146101ff578063f2fde38b1461021b578063f3b39b5b14610237578063fc0c546a1461025a576100ea565b80638da5cb5b146101bb578063db2e21bc146101d9578063e2bbb158146101e3576100ea565b806349eb9e32116100c857806349eb9e321461014957806364ab867514610165578063715018a6146101955780638bdf67f21461019f576100ea565b8063131f2e53146100ef5780631959a0021461010d5780633ccfd60b1461013f575b600080fd5b6100f7610278565b6040516101049190611be1565b60405180910390f35b61012760048036038101906101229190611550565b61027e565b60405161013693929190611bfc565b60405180910390f35b6101476102a8565b005b610163600480360381019061015e91906115de565b610635565b005b61017f600480360381019061017a9190611550565b610707565b60405161018c9190611be1565b60405180910390f35b61019d6109d5565b005b6101b960048036038101906101b49190611667565b610a5d565b005b6101c3610c23565b6040516101d091906119c5565b60405180910390f35b6101e1610c4c565b005b6101fd60048036038101906101f89190611690565b610e62565b005b610219600480360381019061021491906115a2565b6111dc565b005b61023560048036038101906102309190611550565b611283565b005b61023f61137b565b60405161025196959493929190611a40565b60405180910390f35b6102626113b2565b60405161026f91906119c5565b60405180910390f35b60035481565b600a6020528060005260406000206000915090508060000154908060010154908060020154905083565b6000600a60003373ffffffffffffffffffffffffffffffffffffffff1673ffffffffffffffffffffffffffffffffffffffff168152602001908152602001600020600001541161032d576040517f08c379a000000000000000000000000000000000000000000000000000000000815260040161032490611b61565b60405180910390fd5b600062015180600a60003373ffffffffffffffffffffffffffffffffffffffff1673ffffffffffffffffffffffffffffffffffffffff16815260200190815260200160002060010154426103819190611d25565b61038b9190611c9a565b9050601e600a60003373ffffffffffffffffffffffffffffffffffffffff1673ffffffffffffffffffffffffffffffffffffffff168152602001908152602001600020600201546103dc9190611ccb565b811161041d576040517f08c379a000000000000000000000000000000000000000000000000000000000815260040161041490611ae1565b60405180910390fd5b600061042833610707565b905080600354101561046f576040517f08c379a000000000000000000000000000000000000000000000000000000000815260040161046690611b41565b60405180910390fd5b60006104c682600a60003373ffffffffffffffffffffffffffffffffffffffff1673ffffffffffffffffffffffffffffffffffffffff168152602001908152602001600020600001546113d890919063ffffffff16565b9050600260009054906101000a900473ffffffffffffffffffffffffffffffffffffffff1673ffffffffffffffffffffffffffffffffffffffff1663a9059cbb33836040518363ffffffff1660e01b8152600401610525929190611a17565b602060405180830381600087803b15801561053f57600080fd5b505af1158015610553573d6000803e3d6000fd5b505050506040513d601f19601f820116820180604052508101906105779190611579565b5061058d826003546113ee90919063ffffffff16565b600381905550600a60003373ffffffffffffffffffffffffffffffffffffffff1673ffffffffffffffffffffffffffffffffffffffff1681526020019081526020016000206000808201600090556001820160009055600282016000905550503373ffffffffffffffffffffffffffffffffffffffff167fb47e37d80bb9227b793caed3e80256b8eac5e891b85d33f583d43ce03cf3427360405160405180910390a2505050565b61063d611404565b73ffffffffffffffffffffffffffffffffffffffff1661065b610c23565b73ffffffffffffffffffffffffffffffffffffffff16146106b1576040517f08c379a00000000000000000000000000000000000000000000000000000000081526004016106a890611b21565b60405180910390fd5b85600460000160006101000a81548160ff02191690831515021790555084600460010181905550836004600201819055508260046003018190555081600480018190555080600460050181905550505050505050565b600080600a60008473ffffffffffffffffffffffffffffffffffffffff1673ffffffffffffffffffffffffffffffffffffffff16815260200190815260200160002060000154141561075c57600090506109d0565b600062015180600a60008573ffffffffffffffffffffffffffffffffffffffff1673ffffffffffffffffffffffffffffffffffffffff16815260200190815260200160002060010154426107b09190611d25565b6107ba9190611c9a565b905060008114156107cf5760009150506109d0565b6000600a60008573ffffffffffffffffffffffffffffffffffffffff1673ffffffffffffffffffffffffffffffffffffffff168152602001908152602001600020600201549050601e816108239190611ccb565b82111561083a57601e816108379190611ccb565b91505b60006108a4601e61089685600a60008a73ffffffffffffffffffffffffffffffffffffffff1673ffffffffffffffffffffffffffffffffffffffff1681526020019081526020016000206000015461140c90919063ffffffff16565b61142290919063ffffffff16565b905060018214156108e1576108da60646108cc6004600101548461140c90919063ffffffff16565b61142290919063ffffffff16565b90506109c9565b600382141561092f57610928606461091a600361090c6004600201548661140c90919063ffffffff16565b61142290919063ffffffff16565b61142290919063ffffffff16565b90506109c8565b600682141561097d576109766064610968600661095a6004600301548661140c90919063ffffffff16565b61142290919063ffffffff16565b61142290919063ffffffff16565b90506109c7565b600c8214156109c6576109c360646109b5600c6109a760048001548661140c90919063ffffffff16565b61142290919063ffffffff16565b61142290919063ffffffff16565b90505b5b5b5b8093505050505b919050565b6109dd611404565b73ffffffffffffffffffffffffffffffffffffffff166109fb610c23565b73ffffffffffffffffffffffffffffffffffffffff1614610a51576040517f08c379a0000000000000000000000000000000000000000000000000000000008152600401610a4890611b21565b60405180910390fd5b610a5b6000611438565b565b610a65611404565b73ffffffffffffffffffffffffffffffffffffffff16610a83610c23565b73ffffffffffffffffffffffffffffffffffffffff1614610ad9576040517f08c379a0000000000000000000000000000000000000000000000000000000008152600401610ad090611b21565b60405180910390fd5b60008111610b1c576040517f08c379a0000000000000000000000000000000000000000000000000000000008152600401610b1390611b81565b60405180910390fd5b610b31816003546113d890919063ffffffff16565b600381905550600260009054906101000a900473ffffffffffffffffffffffffffffffffffffffff1673ffffffffffffffffffffffffffffffffffffffff166323b872dd3330846040518463ffffffff1660e01b8152600401610b96939291906119e0565b602060405180830381600087803b158015610bb057600080fd5b505af1158015610bc4573d6000803e3d6000fd5b505050506040513d601f19601f82011682018060405250810190610be89190611579565b507ff8fad42e780bfa5459be3fe691e8ba1aec70342250112139c5771c3fd155f31281604051610c189190611be1565b60405180910390a150565b60008060009054906101000a900473ffffffffffffffffffffffffffffffffffffffff16905090565b6000600a60003373ffffffffffffffffffffffffffffffffffffffff1673ffffffffffffffffffffffffffffffffffffffff1681526020019081526020016000206000015411610cd1576040517f08c379a0000000000000000000000000000000000000000000000000000000008152600401610cc890611b61565b60405180910390fd5b600260009054906101000a900473ffffffffffffffffffffffffffffffffffffffff1673ffffffffffffffffffffffffffffffffffffffff1663a9059cbb33600a60003373ffffffffffffffffffffffffffffffffffffffff1673ffffffffffffffffffffffffffffffffffffffff168152602001908152602001600020600001546040518363ffffffff1660e01b8152600401610d70929190611a17565b602060405180830381600087803b158015610d8a57600080fd5b505af1158015610d9e573d6000803e3d6000fd5b505050506040513d601f19601f82011682018060405250810190610dc29190611579565b50600a60003373ffffffffffffffffffffffffffffffffffffffff1673ffffffffffffffffffffffffffffffffffffffff1681526020019081526020016000206000808201600090556001820160009055600282016000905550503373ffffffffffffffffffffffffffffffffffffffff167fb47e37d80bb9227b793caed3e80256b8eac5e891b85d33f583d43ce03cf3427360405160405180910390a2565b600460000160009054906101000a900460ff16610eb4576040517f08c379a0000000000000000000000000000000000000000000000000000000008152600401610eab90611ba1565b60405180910390fd5b6001811015610ef8576040517f08c379a0000000000000000000000000000000000000000000000000000000008152600401610eef90611b01565b60405180910390fd5b600d8110610f3b576040517f08c379a0000000000000000000000000000000000000000000000000000000008152600401610f3290611bc1565b60405180910390fd5b60008211610f7e576040517f08c379a0000000000000000000000000000000000000000000000000000000008152600401610f7590611b81565b60405180910390fd5b6000600a60003373ffffffffffffffffffffffffffffffffffffffff1673ffffffffffffffffffffffffffffffffffffffff1681526020019081526020016000206000015414611003576040517f08c379a0000000000000000000000000000000000000000000000000000000008152600401610ffa90611ac1565b60405180910390fd5b81600a60003373ffffffffffffffffffffffffffffffffffffffff1673ffffffffffffffffffffffffffffffffffffffff1681526020019081526020016000206000018190555042600a60003373ffffffffffffffffffffffffffffffffffffffff1673ffffffffffffffffffffffffffffffffffffffff1681526020019081526020016000206001018190555080600a60003373ffffffffffffffffffffffffffffffffffffffff1673ffffffffffffffffffffffffffffffffffffffff16815260200190815260200160002060020181905550600260009054906101000a900473ffffffffffffffffffffffffffffffffffffffff1673ffffffffffffffffffffffffffffffffffffffff166323b872dd3330856040518463ffffffff1660e01b8152600401611137939291906119e0565b602060405180830381600087803b15801561115157600080fd5b505af1158015611165573d6000803e3d6000fd5b505050506040513d601f19601f820116820180604052508101906111899190611579565b503373ffffffffffffffffffffffffffffffffffffffff167f59062170a285eb80e8c6b8ced60428442a51910635005233fc4ce084a475845e836040516111d09190611be1565b60405180910390a25050565b6111e4611404565b73ffffffffffffffffffffffffffffffffffffffff16611202610c23565b73ffffffffffffffffffffffffffffffffffffffff1614611258576040517f08c379a000000000000000000000000000000000000000000000000000000000815260040161124f90611b21565b60405180910390fd5b81600460000160006101000a81548160ff021916908315150217905550806004600501819055505050565b61128b611404565b73ffffffffffffffffffffffffffffffffffffffff166112a9610c23565b73ffffffffffffffffffffffffffffffffffffffff16146112ff576040517f08c379a00000000000000000000000000000000000000000000000000000000081526004016112f690611b21565b60405180910390fd5b600073ffffffffffffffffffffffffffffffffffffffff168173ffffffffffffffffffffffffffffffffffffffff16141561136f576040517f08c379a000000000000000000000000000000000000000000000000000000000815260040161136690611aa1565b60405180910390fd5b61137881611438565b50565b60048060000160009054906101000a900460ff16908060010154908060020154908060030154908060040154908060050154905086565b600260009054906101000a900473ffffffffffffffffffffffffffffffffffffffff1681565b600081836113e69190611c44565b905092915050565b600081836113fc9190611d25565b905092915050565b600033905090565b6000818361141a9190611ccb565b905092915050565b600081836114309190611c9a565b905092915050565b60008060009054906101000a900473ffffffffffffffffffffffffffffffffffffffff169050816000806101000a81548173ffffffffffffffffffffffffffffffffffffffff021916908373ffffffffffffffffffffffffffffffffffffffff1602179055508173ffffffffffffffffffffffffffffffffffffffff168173ffffffffffffffffffffffffffffffffffffffff167f8be0079c531659141344cd1fd0a4f28419497f9722a3daafe3b4186f6b6457e060405160405180910390a35050565b60008135905061150b81611dff565b92915050565b60008135905061152081611e16565b92915050565b60008151905061153581611e16565b92915050565b60008135905061154a81611e2d565b92915050565b60006020828403121561156257600080fd5b6000611570848285016114fc565b91505092915050565b60006020828403121561158b57600080fd5b600061159984828501611526565b91505092915050565b600080604083850312156115b557600080fd5b60006115c385828601611511565b92505060206115d48582860161153b565b9150509250929050565b60008060008060008060c087890312156115f757600080fd5b600061160589828a01611511565b965050602061161689828a0161153b565b955050604061162789828a0161153b565b945050606061163889828a0161153b565b935050608061164989828a0161153b565b92505060a061165a89828a0161153b565b9150509295509295509295565b60006020828403121561167957600080fd5b60006116878482850161153b565b91505092915050565b600080604083850312156116a357600080fd5b60006116b18582860161153b565b92505060206116c28582860161153b565b9150509250929050565b6116d581611d59565b82525050565b6116e481611d6b565b82525050565b60006116f7602683611c33565b91507f4f776e61626c653a206e6577206f776e657220697320746865207a65726f206160008301527f64647265737300000000000000000000000000000000000000000000000000006020830152604082019050919050565b600061175d601683611c33565b91507f4465706f73697420616c726561647920616374697665000000000000000000006000830152602082019050919050565b600061179d601d83611c33565b91507f43616e74207769746864726177206265666f7265206d617475726974790000006000830152602082019050919050565b60006117dd601683611c33565b91507f4d696e696d756d2074696d65206f6e65206d6f6e7468000000000000000000006000830152602082019050919050565b600061181d602083611c33565b91507f4f776e61626c653a2063616c6c6572206973206e6f7420746865206f776e65726000830152602082019050919050565b600061185d601e83611c33565b91507f4e6f7420656e6f756768207265776172647320696e20636f6e747261637400006000830152602082019050919050565b600061189d601183611c33565b91507f4e6f20616374697665206465706f7369740000000000000000000000000000006000830152602082019050919050565b60006118dd602283611c33565b91507f416d6f756e742068617320746f2062652067726561746572207468616e207a6560008301527f726f0000000000000000000000000000000000000000000000000000000000006020830152604082019050919050565b6000611943601083611c33565b91507f426f6e6420697320696e616374697665000000000000000000000000000000006000830152602082019050919050565b6000611983601a83611c33565b91507f4d6178696d756d2074696d65207477656c7665206d6f6e7468730000000000006000830152602082019050919050565b6119bf81611d97565b82525050565b60006020820190506119da60008301846116cc565b92915050565b60006060820190506119f560008301866116cc565b611a0260208301856116cc565b611a0f60408301846119b6565b949350505050565b6000604082019050611a2c60008301856116cc565b611a3960208301846119b6565b9392505050565b600060c082019050611a5560008301896116db565b611a6260208301886119b6565b611a6f60408301876119b6565b611a7c60608301866119b6565b611a8960808301856119b6565b611a9660a08301846119b6565b979650505050505050565b60006020820190508181036000830152611aba816116ea565b9050919050565b60006020820190508181036000830152611ada81611750565b9050919050565b60006020820190508181036000830152611afa81611790565b9050919050565b60006020820190508181036000830152611b1a816117d0565b9050919050565b60006020820190508181036000830152611b3a81611810565b9050919050565b60006020820190508181036000830152611b5a81611850565b9050919050565b60006020820190508181036000830152611b7a81611890565b9050919050565b60006020820190508181036000830152611b9a816118d0565b9050919050565b60006020820190508181036000830152611bba81611936565b9050919050565b60006020820190508181036000830152611bda81611976565b9050919050565b6000602082019050611bf660008301846119b6565b92915050565b6000606082019050611c1160008301866119b6565b611c1e60208301856119b6565b611c2b60408301846119b6565b949350505050565b600082825260208201905092915050565b6000611c4f82611d97565b9150611c5a83611d97565b9250827fffffffffffffffffffffffffffffffffffffffffffffffffffffffffffffffff03821115611c8f57611c8e611da1565b5b828201905092915050565b6000611ca582611d97565b9150611cb083611d97565b925082611cc057611cbf611dd0565b5b828204905092915050565b6000611cd682611d97565b9150611ce183611d97565b9250817fffffffffffffffffffffffffffffffffffffffffffffffffffffffffffffffff0483118215151615611d1a57611d19611da1565b5b828202905092915050565b6000611d3082611d97565b9150611d3b83611d97565b925082821015611d4e57611d4d611da1565b5b828203905092915050565b6000611d6482611d77565b9050919050565b60008115159050919050565b600073ffffffffffffffffffffffffffffffffffffffff82169050919050565b6000819050919050565b7f4e487b7100000000000000000000000000000000000000000000000000000000600052601160045260246000fd5b7f4e487b7100000000000000000000000000000000000000000000000000000000600052601260045260246000fd5b611e0881611d59565b8114611e1357600080fd5b50565b611e1f81611d6b565b8114611e2a57600080fd5b50565b611e3681611d97565b8114611e4157600080fd5b5056fea2646970667358221220dc8c5d896fe1f45790bc016c12c81baa607ce001c343370e428a70355a64ffa764736f6c63430008000033",
  "linkReferences": {},
  "deployedLinkReferences": {}
}